:107800000C94343C0C94513C0C94513C0C94513CE1
:107810000C94513C0C94513C0C94513C0C94513CB4
:107820000C94513C0C94513C0C94513C0C94513CA4
:107830000C94513C0C94513C0C94513C0C94513C94
:107840000C94513C0C94513C0C94513C0C94513C84
:107850000C94513C0C94513C0C94513C0C94513C74
:107860000C94513C0C94513C11241FBECFEFD8E036
:10787000DEBFCDBF11E0A0E0B1E0E0ECFDE702C06B
:1078800005900D92A230B107D9F712E0A2E0B1E065
:1078900001C01D92AD30B107E1F70E940A3D0C9482
:1078A000DE3E0C94003C9091C00095FFFCCF80938D
:1078B000C6000895CF93982F959595959595959594
:1078C000905DC82FCF70CA3014F0C95A01C0C05D96
:1078D000892F0E94533C8C2F0E94533CCF910895D6
:1078E000CF92DF92EF92FF92CC24DD24760113C079
:1078F0000894C11CD11CE11CF11C81E0C81680EC6D
:10790000D80688EAE80680E0F80628F0E09102014F
:10791000F091030109958091C00087FFE9CF809124
:10792000C600FF90EF90DF90CF900895CF930E9414
:10793000703CC82F0E94533CC13614F0C75503C099
:10794000C0330CF0C0538C2FCF910895CF930E9479
:10795000963CC82F0E94963CC295C07F8C0FCF9159
:107960000895CF93C82F03C00E94703CC150CC2310
:10797000D9F7CF910895CF93C82F0E94703C8032E1
:1079800051F484E10E94533C8C2F0E94533C80E1CF
:107990000E94533C0CC0809104018F5F80930401CE
:1079A000853029F4E0910201F09103010995CF910E
:1079B00008950E94703C803239F484E10E94533C67
:1079C00080E10E94533C0895809104018F5F809371
:1079D0000401853029F4E0910201F0910301099539
:1079E000089515C02D9A2FEF3FE543E02150304018
:1079F0004040E1F700C000002D982FEF3FE543E045
:107A0000215030404040E1F700C000008150882301
:107A100049F70895000085E08093C4001092C500E6
:107A200088E18093C10086E08093C2005098589A04
:107A3000259ABB24B3940E94703C803309F441C062
:107A40008133E1F40E94703C803209F0A9C184E1E5
:107A50000E94533C81E40E94533C86E50E94533CC3
:107A600082E50E94533C80E20E94533C89E40E94DC
:107A7000533C83E50E94533C80E51FC1803439F4B8
:107A80000E94703C8638E8F00E94703C1AC0813435
:107A900099F40E94703C803811F482E07EC18138F4
:107AA00011F481E07AC1823811F480E176C188391D
:107AB00009F072C183E071C1823431F484E10E9423
:107AC000B13C0E94D93CB7CF853411F485E0F7CFA3
:107AD0008035B9F38235A9F3813599F3853549F4B9
:107AE0000E94703C809306010E94703C80930701C5
:107AF000E8CF8635C9F40E94703C803389F40E9437
:107B0000703C0E94703C082F0E94703C002311F4CE
:107B10008EE143C1013011F485E93FC18FE03DC1E1
:107B200083E00E94B13C38C1843609F0CCC00E9489
:107B3000703C809309020E94703C809308028091FF
:107B40000C028E7F80930C020E94703C853429F4D5
:107B500080910C02816080930C0258E0C52E51E0A8
:107B6000D52E760100E010E007C00E94703CF701BE
:107B700081937F010F5F1F4F80910802909109024E
:107B80000817190790F30E94703C803209F008C171
:107B900020910C02809106019091070120FF26C0E0
:107BA000880F991F909307018093060180E090E071
:107BB00015C0F999FECF209106013091070132BD21
:107BC00021BDF60141916F0140BDFA9AF99A2F5FEC
:107BD0003F4F309307012093060101962091080240
:107BE000309109028217930720F366C020910701A4
:107BF000220F220B2B2120930B02880F991F9093A9
:107C00000701809306018091080280FF09C08091DE
:107C1000080290910902019690930902809308024C
:107C2000F894F999FECF1127E0910601F091070130
:107C3000C8E0D1E08091080290910902103091F4DF
:107C40000091570001700130D9F303E00093570011
:107C5000E8950091570001700130D9F301E10093DC
:107C60005700E89509901990009157000170013074
:107C7000D9F301E000935700E8951395103498F07C
:107C800011270091570001700130D9F305E00093EE
:107C90005700E8950091570001700130D9F301E1D8
:107CA00000935700E8953296029709F0C7CF10303D
:107CB00011F00296E5CF112484E10E94533C80E14B
:107CC0000E94533CB8CE843709F053C00E94703CE8
:107CD000809309020E94703C809308028091060103
:107CE00090910701880F991F9093070180930601D7
:107CF0000E94703C90910C02853411F4916001C097
:107D00009E7F90930C020E94703C803209F093CECB
:107D100084E10E94533C00E010E023C080910C02FB
:107D200080FF0BC0F999FECF809106019091070169
:107D300092BD81BDF89A80B507C081FD07C0E09172
:107D40000601F091070184910E94533C8091060145
:107D500090910701019690930701809306010F5FB0
:107D60001F4F809108029091090208171907B0F27D
:107D7000A6CF853779F40E94703C803289F484E183
:107D80000E94533C8EE10E94533C85E90E94533C83
:107D90008FE093CF863721F480E00E94BB3C4BCE2E
:107DA000809104018F5F80930401853009F043CEF8
:107DB000E0910201F091030109953DCEF894FFCFC7
:027DC000800041
:040000030000780081
:00000001FF
